:1000000000000420190200000102000069E1000064
:1000100005020000070200000902000000000000C5
:100020000000000000000000000000000B020000C3
:100030000D020000000000000F020000110200008D
:10004000513C000013020000613C0000130200005C
:100050001302000013020000AD360000130200007E
:10006000130200001302000013020000130200003C
:10007000130200001302000013020000130200002C
:10008000130200004DE10000130200001302000003
:10009000130200001302000013020000130200000C
:1000A00013020000130200001302000013020000FC
:1000B0001302000013020000000000000000000016
:1000C00013020000130200001302000013020000DC
:1000D0001302000013020000130200005D7900000B
:1000E00013020000130200001302000000000000D1
:1000F00000000000130200000000000013020000D6
:1001000000000000000000000000000000000000EF
:1001100000000000000000000000000000000000DF
:1001200000000000000000000000000000000000CF
:1001300000000000000000000000000000000000BF
:1001400000000000000000000000000000000000AF
:10015000000000000000000000000000000000009F
:10016000000000000000000000000000000000008F
:10017000000000000000000000000000000000007F
:10018000000000000000000000000000000000006F
:10019000000000000000000000000000000000005F
:1001A000000000000000000000000000000000004F
:1001B000000000000000000000000000000000003F
:1001C000000000000000000000000000000000002F
:1001D000000000000000000000000000000000001F
:1001E000000000000000000000000000000000000F
:1001F00000000000000000000000000000000000FF
:10020000FEE7FEE7FEE7FEE7FEE7FEE7FEE7FEE7C6
:10021000FEE7FEE700F002B8FFF7FCBF0F484FF023
:100220000701884385460E4880470E48016841F41F
:1002300070010160BFF34F8FBFF36F8F00F01AB8EA
:1002400009480A490A4A884207D0521A05D0037859
:1002500001300B700131013AF9D1704700000420E0
:10026000ED1E000088ED00E0943801000000002041
:10027000D80000203A493B480A1A02D0072291438D
:100280008D46394939480A1A06D00722914381F32D
:100290000988022282F3148835483649364A00F02C
:1002A00041F836483649374A00F03CF83648374975
:1002B000374A00F037F837483749384A00F032F803
:1002C00037483849384A00F02DF838483849394A13
:1002D00000F028F838483949394A00F023F83948FD
:1002E0003949002200F036F838483949002200F038
:1002F00031F838483849091A13F06AF8374A9047F4
:1003000025482649884205D00268043003B4904746
:1003100003BCF7E700208646EC4600200021304A67
:100320009047FEE7884214D0521A12D003460B437E
:1003300013430324234206D1036804300B600431C5
:10034000043AF9D17047037801300B700131013A5A
:10035000F9D17047884202D002700130FAE7704745
:100360000000042000E0032000000420000004201E
:10037000386C0100D8000020B4020020E403000023
:10038000E403000070370100386C0100D800002041
:10039000D80000206C3901006C3901006C39010073
:1003A0006C3901006C3901006C3901006C390100B5
:1003B0006C390100386C0100146E0100B402002099
:1003C000B4020020B40200208C0F00208C0F00200B
:1003D0008C0F00208C0F00208C2F00204102000089
:0403E000990D000073
:1003E40000B585B00190019B002B0AD0074B43F068
:1003F40001030393019B9B010293039B029898477B
:1004040000E000BF05B05DF804FB00BF303B010015
:1004140000B583B00190019B002B0AD04FF47A7091
:10042400FFF7DEFF019B013B0193019B002BF5D1FC
:1004340000E000BF03B05DF804FB82B00190019BB3
:10044400184602B07047000008B501210E480CF0B0
:100454006BFB0346002B03D0012000F031FE02E0C9
:10046400012000F047FE022107480CF05DFB034623
:10047400002B03D0002000F023FE02E0002000F057
:1004840039FE00BF08BD00BFC039010000B583B00C
:1004940001900B468DF803309DF80330032B20D8D0
:1004A40001A252F823F000BFD7040000DF040000CB
:1004B400BD040000C9040000022000F05BFEFFF749
:1004C400C3FF0FE0022000F055FE084B00221A7013
:1004D40008E001980CF036FC04E001980CF032FCC2
:1004E40000E000BF00BF03B05DF804FBB4020020CD
:1004F40000B583B003468DF807309DF807300E2B06
:1005040072D801A252F823F0ED050000ED050000B9
:100514004905000053050000ED050000ED0500004D
:10052400ED050000ED05000071050000A5050000C3
:10053400C9050000ED050000ED0500005F050000A1
:100544006705000009F08BFD00F0EEFD4FE003208D
:1005540000F0B6FDFFF778FF49E0032000F0B0FD9E
:1005640045E009F035FD00F0DFFD40E0224B5B88FB
:10057400022B0AD9214A224BD31ADB081B0443F06D
:1005840003032049184611F071FB07F0EFFB034603
:1005940083F00103DBB2002B28D009F013FD25E022
:1005A400154B5B88022B0AD9144A154BD31ADB0866
:1005B4001B0443F003031449184611F057FB09F0D8
:1005C40041FD14E00C4B5B88022B0AD90B4A0C4BFF
:1005D400D31ADB081B0443F003030C49184611F03B
:1005E40045FB09F009FD02E000BF00E000BF00BFC9
:1005F40003B05DF804FB00BF18000020A037010021
:1006040070370100F4390100083A01001C3A010076
:1006140000B587B001900B468DF803300023049396
:10062400019B1B788DF80E3001238DF80F309DF857
:100634000E307A2B00F2968101A252F823F000BF0B
:1006440059090000690900006909000069090000EE
:1006540069090000690900006909000069090000CE
:1006640069090000690900005109000069090000D6
:1006740069090000510900006909000069090000C6
:10068400690900006909000069090000690900009E
:10069400690900006909000069090000690900008E
:1006A400690900006909000069090000690900007E
:1006B400690900006909000069090000690900006E
:1006C4006109000069090000690900006909000066
:1006D400690900006909000069090000690900004E
:1006E400690900006909000069090000690900003E
:1006F400690900006909000069090000690900002E
:10070400490900000109000009090000110900005D
:10071400190900002109000029090000310900001D
:100724003909000041090000690900006909000055
:1007340069090000690900006909000069090000ED
:1007440069090000690900006909000069090000DD
:1007540069090000690900006909000069090000CD
:1007640069090000690900006909000069090000BD
:1007740069090000690900006909000069090000AD
:10078400690900006909000069090000690900009D
:10079400690900006909000069090000690900008D
:1007A400690900006909000069090000690900007D
:1007B400690900006909000069090000690900006D
:1007C40069090000310800003908000041080000F0
:1007D40049080000510800005908000061080000A1
:1007E4006908000071080000790800008108000011
:1007F400890800009108000099080000A108000081
:10080400A9080000B1080000B9080000C1080000F0
:10081400C9080000D1080000D9080000E108000060
:10082400E9080000F1080000F908000004238DF82D
:1008340017309BE005238DF8173097E006238DF8D9
:10084400173093E007238DF817308FE008238DF8D5
:1008540017308BE009238DF8173087E00A238DF8D1
:10086400173083E00B238DF817307FE00C238DF8CD
:1008740017307BE00D238DF8173077E00E238DF8C9
:10088400173073E00F238DF817306FE010238DF8C5
:1008940017306BE011238DF8173067E012238DF8C1
:1008A400173063E013238DF817305FE014238DF8BD
:1008B40017305BE015238DF8173057E016238DF8B9
:1008C400173053E017238DF817304FE018238DF8B5
:1008D40017304BE019238DF8173047E01A238DF8B1
:1008E400173043E01B238DF817303FE01C238DF8AD
:1008F40017303BE01D238DF8173037E01E238DF8A9
:10090400173033E01F238DF817302FE020238DF8A4
:1009140017302BE021238DF8173027E022238DF8A0
:10092400173023E023238DF817301FE024238DF89C
:1009340017301BE025238DF8173017E026238DF898
:10094400173013E027238DF817300FE028238DF894
:1009540017300BE000238DF80F3007E02C238DF8BF
:10096400173003E000238DF80F3000BF9DF80F30DF
:10097400002B25D09DF817300122194614480CF09D
:1009840056F80620FFF744FD9DF81730002219465B
:100994000F480CF04CF80620FFF73AFD0C48FFF71F
:1009A4004CFD034618460CF0CDF90620FFF730FD48
:1009B4000022002106480CF03AF80620FFF728FD33
:1009C400019B01330193049B0133049328E600BF88
:1009D400C039010000B583B003460A468DF80730DC
:1009E40013468DF806309DF807300B3B0E2B00F2B2
:1009F400D18001A252F823F0390A00006B0A0000EA
:100A0400990B0000990B0000990B0000990B000052
:100A1400990B0000990B0000990B0000990B000042
:100A2400990B0000990B0000990B0000D10A0000FB
:100A3400350B00009DF80630012B40F0AD805B4B78
:100A440001221A705A4B5B88022B40F2A580594A46
:100A5400594BD31ADB081B0443F0030357491846C8
:100A640011F004F998E09DF80630012B15D101220C
:100A7400052153480BF0DBFF4D4B5B88022B40F202
:100A84008D804C4A4C4BD31ADB081B0443F0030300
:100A94004C49184611F0EAF880E09DF80630002B26
:100AA4007CD10022052146480BF0C1FF404B5B88F6
:100AB400022B73D93F4A404BD31ADB081B0443F083
:100AC40003034149184611F0D1F867E09DF8063058
:100AD400012B14D10122062139480BF0A8FF344B15
:100AE4005B88022B5CD9334A334BD31ADB081B04D3
:100AF40043F003033549184611F0B8F850E09DF867
:100B04000630002B4CD1002206212D480BF08FFF1C
:100B1400274B5B88022B43D9264A274BD31ADB0881
:100B24001B0443F003032A49184611F09FF837E0E9
:100B34009DF80630012B14D10122072120480BF027
:100B440076FF1B4B5B88022B2CD91A4A1A4BD31AFB
:100B5400DB081B0443F003031E49184611F086F812
:100B640020E09DF80630002B1CD1002207211448F8
:100B74000BF05DFF0E4B5B88022B13D90D4A0E4B15
:100B8400D31ADB081B0443F003031349184611F07E
:100B94006DF807E000BF06E000BF04E000BF02E01C
:100BA40000BF00E000BF03B05DF804FBB402002006
:100BB40018000020A037010070370100283A010016
:100BC400C03901003C3A0100503A0100643A010086
:100BD400783A01008C3A0100A03A010000B583B0D4
:100BE40008F020FB0190019B0093009B002B05D093
:100BF400044A4FF4B471009807F08AFF00BF03B0B1
:100C04005DF804FBB43A010000B585B00A22042162
:100C1400104807F07DFE0390039B0293029B002B78
:100C240005D00D4A40F27511029807F071FF07F0E4
:100C3400F7FE0390039B0193019B002B05D0064A0A
:100C44004FF4BC71019807F063FF00BF05B05DF875
:100C540004FB00BF103B0100B43A010000B583B0AF
:100C64000021012000F054FE0190019B0093009BA1
:100C7400002B05D0044A4FF4C271009807F048FFD6
:100C840000BF03B05DF804FBB43A010000B583B0C3
:100C94004FF48041002010F0EDFB0190019B009384
:100CA400009B002B05D0064A4FF4C671009807F04C
:100CB4002FFF10F06BFB00BF03B05DF804FB00BF17
:100CC400B43A010000B585B001F058FA0390039BD3
:100CD4000293029B002B05D0124A40F29B1102980A
:100CE40007F016FF002001F0A7FA00BF01F0F2FAA6
:100CF400034683F00103DBB2002BF7D10A4809F065
:100D040089F80390039B0193019B002B05D0054AAE
:100D140040F2A111019807F0FBFE00BF05B05DF899
:100D240004FB00BFB43A0100383B010000B585B0B4
:100D34000B48FFF782FB0390039809F0D7FC02905D
:100D4400029B0193019B002B05D0064A40F2AF1190
:100D5400019807F0DDFE00BF05B05DF804FB00BF9D
:100D6400C0390100B43A010000B583B009F000F9BC
:100D74000190019B0093009B002B05D0044A4FF483
:100D8400DE71009807F0C4FE00BF03B05DF804FBF9
:100D9400B43A010000B585B0FFF778FFFFF71EFFF6
:100DA400FFF75CFFFFF730FFFFF78CFFFFF7BEFF95
:100DB400FFF7DAFF00BF09F01FFC0346002BFAD14E
:100DC4000D4B1B78DBB2002B12D00C4A01AB92E81E
:100DD400030083E8030008238DF80F309DF80F20EB
:100DE40001AB11461846FFF713FC034B00221A709F
:100DF40010F0C6FF20BFDDE7B4020020083B01006D
:100E040000B583B00190019B1B68184600F002F9FD
:100E14000346002B04D10B494FF4F6700DF0D0FAC1
:100E2400019B1B681F2B02D84FF0A04306E0019BD7
:100E34001B6803F01F02019B1A60034B184603B0A2
:100E44005DF804FB443B01000003005000B585B08D
:100E54000190084611461A4603468DF803300B46A6
:100E64008DF8023013468DF8013001AB1846FFF7B8
:100E7400C7FF03909DF803209DF802305B001A43DE
:100E84009DF801309B001A439DF818301B0242EA7A
:100E940003019DF81C301B04019A1943039B02F5BE
:100EA400E07243F8221000BF05B05DF804FB00B502
:100EB40085B00390002301930023009300230122B3
:100EC40001210398FFF7C2FF00BF05B05DF804FBE2
:100ED40000B585B003900B468DF80B309DF80B30B0
:100EE4000022019200220092002200210398FFF7C1
:100EF400ADFF00BF05B05DF804FB00B585B00190FF
:100F040001AB1846FFF77CFF0390019B012202FA14
:100F140003F31946039800F069F800BF05B05DF8C3
:100F240004FB00B585B0019001AB1846FFF768FFDC
:100F34000390019B012202FA03F31946039800F07F
:100F44005FF800BF05B05DF804FB00B585B0019003
:100F540001AB1846FFF754FF0390039BD3F8043505
:100F64000293029BDA43019B012101FA03F31A4025
:100F7400039BC3F80825019B01229A40029B1A4057
:100F8400039BC3F80C2500BF05B05DF804FB00B556
:100F940083B001900091009B002B03D10198FFF7CF
:100FA400C0FF02E00198FFF7A8FF00BF03B05DF89F
:100FB40004FB00B585B0019001AB1846FFF720FF94
:100FC4000390039800F00AF80246019B22FA03F307
:100FD40003F00103184605B05DF804FB82B00190EC
:100FE400019BD3F80435184602B0704782B00190D3
:100FF4000091019B009AC3F8082500BF02B0704716
:1010040082B001900091019B009AC3F80C2500BFA7
:1010140002B0704784B00190019B5B0902930023E6
:101024000393029B002B03D0029B012B04D007E007
:101034004FF0FF33039303E04FF6FF73039300BFB6
:10104400019B03F01F030193039A019B22FA03F30C
:1010540003F00103002B14BF01230023DBB2184665
:1010640004B0704700B585B00190019B032B03D9F0
:1010740011493A200DF0A4F9104A019B13441B783E
:101084001846FFF796FF0346002B14BF01230023E5
:101094008DF80F309DF80F30002B14BF012300236F
:1010A400DBB283F00103DBB203F00103DBB21846C9
:1010B40005B05DF804FB00BF743B0100B43B0100C4
:1010C40000B583B00190019B032B03D9074941204C
:1010D4000DF076F9064A019B13441B78002118464B
:1010E400FFF755FF00BF03B05DF804FB743B01003C
:1010F400B43B010000B583B00190019B032B03D9DD
:10110400074947200DF05CF9064A019B13441B78FC
:1011140001211846FFF73BFF00BF03B05DF804FB55
:10112400743B0100B43B010000B583B0002301937C
:1011340005E00198FFF7DEFF019B01330193019B5A
:10114400032BF6D900BF00BF03B05DF804FB00B564
:1011540083B00023019305E00198FFF7B1FF019BE1
:1011640001330193019B032BF6D900BF00BF03B0E9
:101174005DF804FB00B583B00190019B032B03D9F8
:1011840007495F200DF01CF9064A019B13441B78A4
:101194001846FFF7DAFE00BF03B05DF804FB00BF9A
:1011A400743B0100B43B010000B583B000230193FC
:1011B40009E0094A019B13441B781846FFF777FEA0
:1011C400019B01330193019B032BF2D9FFF7ACFF81
:1011D40000BF03B05DF804FBB43B010000B583B06D
:1011E400002301930AE0094A019B13441B7803215D
:1011F4001846FFF76DFE019B01330193019B032BFE
:10120400F1D900BF00BF03B05DF804FBB83B010097
:1012140084B001904FF0FF330293002303930DE059
:101224000A4A039B13441B781A46019B934202D13A
:10123400039B029305E0039B01330393039B032B5E
:10124400EED9029B184604B0704700BFB83B0100BA
:1012540000B583B00190019B03F00103002B01D082
:10126400FFF7A2FF019B03F00203002B01D0FFF75D
:10127400B5FF00BF03B05DF804FB000000B587B004
:1012840003460A468DF8073013468DF806300023CE
:101294008DF81730002304939DF807301846FFF7A4
:1012A400B7FF0490049B032B62D89DF80630022BF1
:1012B40052D0022B5CDC002B31D0012B58D13549A4
:1012C400049A13465B0013440B441B788DF81730C3
:1012D4003049049A13465B0013440B4401331B78D2
:1012E400002B0ED02C4B2D4A4FF48041184608F0A9
:1012F40011F80390039B002B03D1284A9DF8073073
:1013040013702449049A13465B0013440B440233BC
:101314001978234A049B13440A461A7028E01E4B8A
:10132400184608F047F81E4A049B134419781948D4
:10133400049A13465B001344034402331B78994216
:1013440015D11449049A13465B0013440B44023329
:101354001B788DF817300AE00E49049A13465B0097
:1013640013440B4401331B788DF8173000E000BFA1
:101374009DF81730002B09D00A4B1B68002B05D0B1
:10138400084B1B689DF817201046984700BF07B00C
:101394005DF804FB20030020200100202C03002022
:1013A400300300201C03002000B583B00190019B92
:1013B4001B7802211846FFF761FF00BF03B05DF8F8
:1013C40004FB000000B583B00C4B1B78002B0FD03E
:1013D4000023019308E0019B022B02D00198FFF740
:1013E40089FE019B01330193019B032BF3D901E097
:1013F400FFF79AFE00BF03B05DF804FB180300205A
:101404002DE9D04F92B003468DF83F30002311935D
:1014140000231093CC4B1B78002B04D0CA4A002322
:101424001370FFF7CFFF9DF83F30172B00F23F8278
:1014340001A252F823F000BF9D140000B51400006F
:10144400B514000051150000ED15000069160000E8
:10145400FD1600001D1700002D170000591700008D
:101464007717000095170000B3170000C11700009C
:10147400C1170000C1170000C1170000C117000008
:101484005518000063180000771800008B1800003E
:10149400A5180000A5180000FFF794FFAB4B1846F1
:1014A40007F088FF1190AA4A9DF83F301370FFE1BE
:1014B4000020FFF7D7FD0346002B0DD00020FFF7D7
:1014C40019FE9DF83F30022B02D14FF4E16301E095
:1014D4004FF47A6310930BE00020FFF7F1FD9DF8C1
:1014E4003F30022B01D1C82301E04FF4C87310939D
:1014F400974A9DF83F301370944C109B0022009340
:1015040001924FF000024FF00003DDE90067394615
:10151400CB03314643EA51433146CA0312F57A718B
:10152400029143F1000303934FF4FA624FF0000376
:10153400DDE9020111F06EFC02460B46134600225F
:101544001946204607F0E6FE1190B1E10020FFF7AE
:1015540089FD0346002B0DD00020FFF7CBFD9DF83D
:101564003F30032B02D14FF4487301E04FF47A6308
:1015740010930BE00020FFF7A3FD9DF83F30032BF1
:1015840001D1C82301E04FF4C8731093704A9DF849
:101594003F3013706D4C109B0022049305924FF062
:1015A40000024FF00003DDE904673946CB033146FE
:1015B40043EA51433146CA0312F57A71069143F165
:1015C400000307934FF4FA624FF00003DDE90601CC
:1015D40011F020FC02460B46134600221946204611
:1015E40007F098FE119063E10020FFF73BFD0346EE
:1015F400002B06D00020FFF77DFD4FF47A63109393
:1016040005E00020FFF75CFD4FF4C8731093504AC7
:101614009DF83F3013704D4C109B00229A46934620
:101624004FF000024FF000034FEACB3343EA5A4332
:101634004FEACA3212F57A71089143F10003099313
:101644004FF4FA624FF00003DDE9080111F0E2FB08
:1016540002460B46134600221946204607F05AFE5E
:10166400119025E10020FFF7FDFC0346002B0CD070
:101674000020FFF73FFD9DF83F30052B01D1C82323
:1016840001E04FF47A6310930BE00020FFF718FD9C
:101694009DF83F30052B01D1C82301E04FF4C873F6
:1016A40010932B4A9DF83F301370284C109B002256
:1016B400984691464FF000024FF000034FEAC933B9
:1016C40043EA58434FEAC83212F57A710A9143F15A
:1016D40000030B934FF4FA624FF00003DDE90A01B3
:1016E40011F098FB02460B46134600221946204689
:1016F40007F010FE1190DBE00020FFF73BFD144AD9
:101704009DF83F301370114B002240F26661184679
:1017140007F000FE1190CBE00020FFF7D1FC0C4A4B
:101724009DF83F301370C3E0074B01221A7001206B
:10173400FFF720FD054B002240F26661184607F0D2
:10174400E9FD1190B4E000BF11030020E000002087
:1017540010030020594B01221A700120FFF70AFDE3
:10176400574B00224FF40051184607F0D3FD119057
:101774009EE0524B01221A700120FFF7FBFC504BF4
:10178400002240F26661184607F0C4FD11908FE014
:101794004A4B01221A700120FFF7ECFC484B00224F
:1017A4004FF40051184607F0B5FD119080E0FFF7A3
:1017B400CEFC444A9DF83F30137079E0424B184602
:1017C40007F0F8FD11909DF83F30C3F11103109319
:1017D400109B002B35D0119B002B32D1109B012B79
:1017E40028D9394C109B9BB21A46C82302FB03F339
:1017F400DA171E4617464FF000024FF00003FB03B2
:1018040043EA5643F20312F57A710C9143F1000353
:101814000D934FF4FA624FF00003DDE90C0111F06F
:10182400F9FA02460B46134600221946204607F0F1
:1018340071FD11900220FFF743FC244B01221A7022
:1018440036E00220FFF756FC204B00221A702FE0EE
:10185400FFF7B8FD1B4A9DF83F30137028E0FFF7EF
:10186400B1FD0020FFF72CFC164A9DF83F301370A1
:101874001EE0FFF7A7FD0120FFF722FC114A9DF8A7
:101884003F30137014E0FFF79DFD0020FFF718FCB4
:101894000120FFF715FC0B4A9DF83F30137007E059
:1018A400FFF755FC074A9DF83F30137000E000BF76
:1018B400119B184612B0BDE8D08F00BF1103002061
:1018C400E000002010030020000100201803002085
:1018D40000B583B00190074B1B6803F00103002B94
:1018E40004D0054B1B781846FFF78AFD00BF03B0F0
:1018F4005DF804FB140300201003002000B583B03E
:1019040001900220FFF736FC00BF03B05DF804FB32
:1019140000B585B001900091002303932A4A019BEE
:1019240013602A4A009B1360019B03F00203002BFF
:101934002AD00023029308E001220121029800F03A
:1019440055F80390029B01330293029B032B02D8A8
:10195400039B002BF0D0039B002B06D140F23332C3
:1019640004211B4806F0D4FF0390039B002B02D1F3
:1019740007F056F80390039B002B05D1154A00216C
:10198400154807F08DFC0390019B03F00103002B25
:1019940014D00120FFF75CFC039B002B05D10F4AF8
:1019A40000210F4807F07CFC0390039B002B05D11A
:1019B4000C4A01210C4807F073FC0390039B184662
:1019C40005B05DF804FB00BF140300201C030020D5
:1019D4004C3C0100AD130000483C0100D518000048
:1019E400403C010001190000443C010084B0019016
:1019F4000B468DF8033013468DF802300023039311
:101A0400019B032B3CD89DF80230012B0BD19DF890
:101A14000330012B04D1019BDBB20E33DBB200E0B7
:101A240000238DF802309DF80330022B0FD0022BD7
:101A340023DC002B16D0012B1FD11449019A134625
:101A44005B0013440B449DF802201A701AE00F49FE
:101A5400019A13465B0013440B4401339DF80220A2
:101A64001A700FE00949019A13465B0013440B44B2
:101A740002339DF802201A7004E00723039301E067
:101A840007230393039B184604B0704720030020E8
:101A940000B587B00390029101920F4B1B68002B95
:101AA40003D10E492F200CF08BFC019B04331B68DF
:101AB40004AA0B49184611F051FA049BDBB20E3309
:101AC4008DF81730044B1B689DF817201046984773
:101AD40000BF07B05DF804FB340300206C3C010038
:101AE400B43C010000B587B00390029101920E4B03
:101AF4001B68002B03D10D4939200CF061FC019BBC
:101B040004331B6804AA0A49184611F027FA049BF7
:101B14008DF81730044B1B689DF817201046984722
:101B240000BF07B05DF804FB340300206C3C0100E7
:101B3400B43C0100BFF34F8F00BF064BDB6803F4D6
:101B4400E0620449044B1343CB60BFF34F8F00BFE3
:101B540000BFFDE700ED00E00400FA0582B0164B7B
:101B64001B680193154B1B680093019B082B1FD125
:101B7400009B052B1AD801A252F823F0991B0000F0
:101B84009D1B0000A11B0000A51B0000A91B000059
:101B9400AD1B000001230CE001230AE0012308E04F
:101BA400012306E0012304E0012302E0012300E015
:101BB4000023184602B070473001001034010010B1
:101BC40082B0164B1B680193154B1B680093019B55
:101BD400082B1FD1009B052B1AD801A252F823F021
:101BE400FD1B0000011C0000051C0000091C000076
:101BF4000D1C0000111C000001230CE001230AE06D
:101C0400012308E0012306E0012304E0012302E0AC
:101C1400012300E00023184602B070473001001091
:101C24003401001082B0164B1B680193154B1B68DE
:101C34000093019B082B1FD1009B052B1AD801A2EE
:101C440052F823F0611C0000651C0000691C0000B0
:101C54006D1C0000711C0000751C000001230CE0C9
:101C640000230AE0002308E0002306E0002304E048
:101C7400002302E0002300E00023184602B070476E
:101C8400300100103401001082B0164B1B68019320
:101C9400154B1B680093019B082B1FD1009B052B40
:101CA4001AD801A252F823F0C51C0000C91C000078
:101CB400CD1C0000D11C0000D51C0000D91C000064
:101CC40001230CE000230AE0002308E0002306E0DF
:101CD400002304E0002302E0002300E00023184670
:101CE40002B07047300100103401001082B0164B6E
:101CF4001B680193154B1B680093019B082B1FD194
:101D0400009B052B1AD801A252F823F0291D0000CC
:101D14002D1D0000311D0000351D0000391D00007F
:101D24003D1D000001230CE000230AE0002308E02D
:101D3400002306E0002304E0002302E0002300E087
:101D44000023184602B0704730010010340100101F
:101D540082B0164B1B680193154B1B680093019BC3
:101D6400082B1FD1009B052B1AD801A252F823F08F
:101D74008D1D0000911D0000951D0000991D00009F
:101D84009D1D0000A11D000001230CE000230AE0BA
:101D9400002308E0002306E0002304E0002302E01F
:101DA400002300E00023184602B070473001001001
:101DB4003401001082B0164B1B680193154B1B684D
:101DC4000093019B082B1FD1009B052B1AD801A25D
:101DD40052F823F0F11D0000F51D0000F91D00006C
:101DE400FD1D0000011E0000051E000001230CE083
:101DF40001230AE0012308E0012306E0012304E0B3
:101E0400012302E0012300E00023184602B07047DA
:101E1400300100103401001082B0164B1B6801938E
:101E2400154B1B680093019B082B1FD1009B052BAE
:101E34001AD801A252F823F0551E0000591E0000C2
:101E44005D1E0000611E0000651E0000691E00008A
:101E540000230CE000230AE0002308E0002306E04E
:101E6400012304E0012302E0012300E000231846DB
:101E740002B07047300100103401001008B5FFF7BC
:101E8400CBFF0346002B07D04FF010234FF08042C6
:101E9400D3F80832C2F8583500BF08BD00BF044B60
:101EA400D3F80034002BFAD000BF00BF704700BF46
:101EB40000E0014000B583B00190054A019BC2F8DF
:101EC4000435FFF7EBFF00BF03B05DF804FB00BF70
:101ED40000E00140024B034A1A6000BF704700BF94
:101EE400400100200090D00308B5FFF737FE0346F9
:101EF400002B0ED04FF080430022C3F80C214FF08A
:101F040080430022C3F810214FF080430022C3F81D
:101F14003825FFF755FE0346002B76D04FF080534B
:101F2400734AD3F80434C2F820354FF08053704A12
:101F3400D3F80834C2F824354FF080536C4AD3F8F0
:101F44000C34C2F828354FF08053694AD3F8103462
:101F5400C2F82C354FF08053654AD3F81434C2F8D4
:101F640030354FF08053624AD3F81834C2F8343510
:101F74004FF080535E4AD3F81C34C2F840354FF01A
:101F840080535B4AD3F82034C2F844354FF0805371
:101F9400574AD3F82434C2F848354FF08053544A92
:101FA400D3F82834C2F84C354FF08053504AD3F854
:101FB4002C34C2F850354FF080534D4AD3F83034A6
:101FC400C2F854354FF08053494AD3F83434C2F838
:101FD40060354FF08053464AD3F83834C2F864353C
:101FE4004FF08053424AD3F83C34C2F868354FF07E
:101FF40080533F4AD3F84034C2F86C354FF08053D5
:102004003B4AD3F84434C2F87035FFF70BFE03465D
:10201400002B02D0374B384A1A60FFF735FE0346CF
:10202400002B03D0354BFB22C3F81825FFF75EFEC7
:102034000346002B0AD0324B1B6823F00F02314BAE
:102044001B6803F00F032E4913430B60FFF780FE58
:102054000346002B03D02C4B4FF400721A60FFF799
:10206400A9FE0346002B0DD04FF08043D3F8003473
:1020740003F00103002B05D04FF080436FF0010201
:10208400C3F80024214BD3F88830204A43F470036A
:10209400C2F88830BFF34F8F00BFBFF36F8F00BF0C
:1020A400FFF7ECFE4FF01023D3F80032002B05DBD2
:1020B4004FF01023D3F80432002B15DA0120FFF778
:1020C400F9FE4FF010231222C3F80022FFF7E6FEB8
:1020D4004FF010231222C3F80422FFF7DFFE002082
:1020E400FFF7E8FEFFF726FDFFF7F4FE00BF08BD8B
:1020F40000C000408C5600404881030000F00040BE
:10210400E40E0040580200104096024000ED00E04A
:102114004FF08043D3F818341B0C03F00103002B59
:1021240014BF01230023DBB21846704708B5FFF73C
:10213400EFFF0346184608BD044BD3F80034002BC8
:1021440014BF01230023DBB218467047000001408E
:1021540008B500F02BFC00BF08BD000008B500F076
:102164003FFC024B00225A7000BF08BD3803002018
:10217400014B1B78184670473803002000B583B024
:1021840000230193144B1B78002B02D08523019369
:1021940014E0114B00229A600F4B00225A600E4B40
:1021A40000221A610C4B0022DA600C4800F0A4FBF8
:1021B400019000F0C7FB084B01221A70FFF7BCFF27
:1021C4000346002B02D0044B01229A70019B18464F
:1021D40003B05DF804FB00BF380300204124000075
:1021E40084B001900091019B1B68039306E0039A5D
:1021F400009B9A420DD0039B1B680393039B002B07
:10220400F5D1019B1A68009B1A60019B009A1A6021
:1022140000E000BF04B0704784B00190019B1B68CC
:102224000393039B002B03D0039B1A68019B1A6042
:10223400039B184604B0704700B583B00190224B4D
:102244001B78002B03D12149F6200CF0B9F81E4B62
:102254009B78DBB2002B12D0019B002B03D0019B97
:102264005B680120984700200BF02EFB164BDB68BF
:102274000133154AD36000200BF03AFB17E000202D
:102284000BF022FB019B002B03D001991048FFF7B0
:10229400A7FF0D4BDB68002B01D100F06DFB0A4B4F
:1022A400DB680133084AD36000200BF021FB064BA6
:1022B400DB68002B04D105494FF489700CF080F8D9
:1022C40000BF03B05DF804FB380300203C3D01006F
:1022D4004803002008B5074B1B78002B04D106499E
:1022E40040F225100CF06CF8FFF720FF0346184667
:1022F40008BD00BF380300203C3D010000B583B099
:102304000190234B1B78002B04D1224940F2331057
:102314000CF056F81E4B5B78DBB2002B12D0019BFD
:10232400002B03D0019B5B680020984700200BF032
:10233400CBFA174B5B680133154A536000200BF04E
:10234400D7FA17E000200BF0BFFA019B002B03D053
:1023540001991148FFF744FF0D4B5B68002B01D135
:10236400FFF7F6FE0A4B5B680133094A536000200D
:102374000BF0BEFA064B5B68002B04D1054940F212
:102384004F100CF01DF800BF03B05DF804FB00BF54
:10239400380300203C3D01004003002008B5124BE7
:1023A4001B78002B04D111494FF4AA700CF008F8E3
:1023B4000D4B5B68002B04D10C4940F255100BF017
:1023C400FFFF00200BF080FA074B5B68013B064AD5
:1023D4005360054B5B68002B01D1FFF7BFFE002063
:1023E4000BF086FA00BF08BD380300203C3D010015
:1023F40000B585B003468DF807309DF80730002BF3
:1024040002D10C4B039301E00B4B03930398FFF7AA
:1024140003FF0290029B002B06D0029B5B689DF891
:10242400072010469847F1E700BF00BF05B05DF8EC
:1024340004FB00BF400300204803002000B583B024
:1024440003468DF807309DF80730002B05D10A4B61
:1024540001225A700020FFF7CBFF9DF80730012BB3
:1024640005D1054B01229A700120FFF7C1FF00BF7F
:1024740003B05DF804FB00BF3803002000B585B04D
:1024840001900D4B1B78002B01D085230FE0019B9D
:10249400002B01D1094B0193019801F0D1FA03906B
:1024A400039B002B02D1044B01221A70039B184694
:1024B40005B05DF804FB00BF4C030020883D01001B
:1024C40000B583B0019000F00AF8019801F0E6FA33
:1024D40001F000FB0023184603B05DF804FB08B5C7
:1024E40001F0FFFA01F004FB00BF08BD00B589B09C
:1024F40001900091009B0793019B1B788DF80C3091
:10250400019B5B680493019B9B68DBB28DF81430DC
:10251400019BDB680693074A079B52F82330064960
:10252400079A51F8221003AA1046984700BF09B031
:102534005DF804FB500300205803002000B589B067
:1025440001900091009B0793019B1B788DF80C3040
:10255400019B5B680493019B9B68DBB28DF814308C
:10256400019BDB680693074A079B52F82330064910
:10257400079A51F8221003AA1046984700BF09B0E1
:102584005DF804FB500300205803002030B58FB0E1
:10259400039002910192039B1B780C932C490C9B92
:1025A400019A41F82320029B1A692A490C9B41F89D
:1025B40023200C9B012B07D1029B5B7F002B03D1B3
:1025C400254976200BF0FCFE029B5B7F1946234ACB
:1025D4000C9B13440A461A70029B04AC1D460FCD93
:1025E4000FC495E80F0084E80F000C9B08930023A8
:1025F4000D93039B1B781A46184B9B5C002B0DD044
:10260400039B181D019B002B01D0154A00E00022FA
:1026140004AB194602F094FD0D9014E0039B1B7863
:102624001A460E4B9B5C002B0DD1039B03F10C004F
:10263400019B002B01D00B4A00E0002204AB194699
:1026440001F002FF0D900D9B18460FB030BD00BF86
:1026540050030020580300208C3D0100600300203B
:10266400F12400004125000010B487B001900091CE
:10267400019B009A53E8004F04EA020043E800017A
:1026840091F0000FF6D1059404900391059B184630
:1026940007B05DF8044B704782B003468DF80730ED
:1026A4009DF90730002B0CDB9DF8073003F01F0267
:1026B40005499DF907305B09012000FA02F241F84F
:1026C400232000BF02B0704700E100E082B003465F
:1026D40000918DF807309DF90730002B0ADB009B31
:1026E400DAB20C499DF907305201D2B20B4483F897
:1026F40000230BE0009BDAB207499DF8073003F092
:102704000F03043B5201D2B20B441A7600BF02B04D
:10271400704700BF00E100E000ED00E082B00190EE
:10272400019B1B0B5BB2184602B0704700B583B027
:1027340003460A468DF8073013468DF806309DF897
:102744000630072B03D908496B200BF039FE9DF89E
:1027540006209DF9073011461846FFF7B7FF00BF62
:1027640003B05DF804FB00BFD83D010000B583B0A1
:1027740003468DF807309DF907301846FFF78CFFA4
:1027840000BF03B05DF804FB82B003468DF8073048
:102794000F4A9DF90730002B00DA1F335B115BB23F
:1027A40052F823209DF90730594203F01F0301F02A
:1027B4001F0158BF4B425BB222FA03F303F001033B
:1027C400002B14BF01230023DBB2184602B070476C
:1027D40000E100E082B001904FF08042019BC2F81A
:1027E400043300BF02B0704782B001904FF08042C2
:1027F400019BC2F8083300BF02B0704782B00346A1
:102804008DF807309DF8073003F1804301221A60E8
:1028140000BF02B0704784B00346ADF80630BDF87F
:10282400063003F1804300221A60BDF8063003F13C
:1028340080431B680393039B00BF04B0704782B0BE
:102844000346ADF80630BDF8063003F180431B683B
:10285400002B14BF01230023DBB2184602B07047DB
:1028640082B001904FF08042019BC2F8183500BF3E
:1028740002B0704782B003468DF807304FF08043B2
:10288400D3F80C3403F001129DF8073043F480337D
:102894009A420CBF01230023DBB2184602B07047F2
:1028A40000B583B006238DF807304FF08040FFF762
:1028B40035FF03461846FFF767FF034683F001031D
:1028C400DBB2002B13D04FF08040FFF727FF034605
:1028D4001A469DF8073019461046FFF727FF4FF0B8
:1028E4008040FFF71BFF03461846FFF73FFF00BF7A
:1028F40003B05DF804FB000000B585B00190019BB6
:10290400002B03D10D49A4200BF05AFD002303939F
:102914000B4B1B79002B02D08523039308E0084A54
:10292400019B1360064B01221A71054B00225A7158
:10293400039B184605B05DF804FB00BF103E010080
:102944006403002008B5094B1B79002B03D1084907
:10295400BD200BF035FDFFF7A3FF0120FFF780FF3B
:10296400044B01221A7000BF08BD00BF640300209D
:10297400103E01006C03002008B50A4B1B79002BA4
:1029840003D10949EA200BF01BFD4FF48270FFF7D5
:1029940042FF0220FFF71EFF0820FFF72FFF00BFB2
:1029A40008BD00BF64030020103E010008B50A4BB7
:1029B4001B79002B04D109494FF481700BF000FD01
:1029C4004FF48070FFF727FF0120FFF703FF00207B
:1029D400FFF714FF00BF08BD64030020103E010090
:1029E40008B50F4B1B79002B04D10E494FF48570A9
:1029F4000BF0E6FC0120FFF7F7FE4FF48070FFF7C1
:102A04000AFF0420FFF7FAFE00BF0120FFF732FFA0
:102A14000346002BF9D1024B00225A7100BF08BDB6
:102A240064030020103E010008B54FF48070FFF7E6
:102A340006FF0346002B14D04FF48070FFF7EBFE23
:102A44000120FFF7D1FE114B5B7983F00103DBB268
:102A5400002B06D00D4B01225A710C4B1B68002031
:102A640098474FF48270FFF7EAFE0346002B0AD022
:102A74004FF48270FFF7CFFE0220FFF7B5FE034B41
:102A84001B680120984700BF08BD00BF64030020F5
:102A940082B003468DF807309DF90730002B0CDB1C
:102AA4009DF8073003F01F0205499DF907305B09C3
:102AB400012000FA02F241F8232000BF02B070475F
:102AC40000E100E082B0034600918DF807309DF9E3
:102AD4000730002B0ADB009BDAB20C499DF9073062
:102AE4005201D2B20B4483F800230BE0009BDAB20C
:102AF40007499DF8073003F00F03043B5201D2B29B
:102B04000B441A7600BF02B0704700BF00E100E03A
:102B140000ED00E082B00190019B1B0B5BB21846F4
:102B240002B0704700B583B003460A468DF80730FB
:102B340013468DF806309DF80630072B03D9084953
:102B44006B200BF03DFC9DF806209DF907301146E3
:102B54001846FFF7B7FF00BF03B05DF804FB00BFE2
:102B64005C3E010000B583B003468DF807309DF943
:102B740007301846FFF78CFF00BF03B05DF804FB75
:102B840000B583B00346ADF80630BDF806301846EC
:102B940000F026F803461B68012B0CBF0123002319
:102BA400DBB2184603B05DF804FB00B585B00346FC
:102BB400ADF80630BDF80630184600F011F80346AB
:102BC4001A4600231360BDF80630184600F008F8D2
:102BD40003461B680393039B00BF05B05DF804FB29
:102BE40082B00346ADF80630BDF8063003F18043E9
:102BF40003F5C043184602B07047000082B001904C
:102C0400034A019BC2F8043300BF02B0704700BFFF
:102C14000060004082B00190034BD3F80423019B71
:102C24001340184602B070470060004082B0019023
:102C3400084A019B03F5A27352F82330054943F077
:102C44000102019B03F5A27341F8232000BF02B0E7
:102C5400704700BF0060004084B0039002911346A7
:102C64008DF80730144A039B03F5A27352F82330FE
:102C7400114923F44F3323F44073039A02F5A272EB
:102C840041F822300C4A039B03F5A27352F8232027
:102C9400029B1B0203F47C519DF807301B0403F4D0
:102CA40040330B4304491A43039B03F5A27341F8D1
:102CB400232000BF04B070470060004082B0019040
:102CC400054A019B03F5A27352F823301B0A03F053
:102CD4003F03184602B070470060004082B0019084
:102CE400064A019B03F5A27352F823301B0C03F030
:102CF4000303DBB2184602B0704700BF0060004017
:102D040000B583B00190019B1B68184600F028F9B8
:102D14000346002B04D10B494FF4F6700BF050FB23
:102D2400019B1B681F2B02D84FF0A04306E0019BB8
:102D34001B6803F01F02019B1A60034B184603B083
:102D44005DF804FB8C3E01000003005000B585B023
:102D54000190084611461A4603468DF803300B4687
:102D64008DF8023013468DF8013001AB1846FFF799
:102D7400C7FF03909DF803209DF802305B001A43BF
:102D84009DF801309B001A439DF818301B0242EA5B
:102D940003019DF81C301B04019A1943039B02F59F
:102DA400E07243F8221000BF05B05DF804FB00B5E3
:102DB40085B003900B468DF80B309DF80B30002244
:102DC400019200220092002200210398FFF7BEFF27
:102DD40000BF05B05DF804FB00B585B0019001AB00
:102DE4001846FFF78DFF0390019A039B02F5E072EA
:102DF40053F8223023F002030293019A039B02F555
:102E0400E072029943F8221000BF05B05DF804FB9C
:102E140000B585B001900B468DF8033001AB184620
:102E2400FFF76EFF0390019A039B02F5E07253F8DB
:102E34002230019A23F44031039B02F5E07243F8F7
:102E44002210019A039B02F5E07253F822109DF8B8
:102E540003301B04019A1943039B02F5E07243F803
:102E6400221000BF05B05DF804FB00B585B00190E9
:102E740001AB1846FFF744FF0390039800F020F8D5
:102E84000246019B22FA03F303F00103184605B03E
:102E94005DF804FB00B585B0019001AB1846FFF75F
:102EA4002FFF0390019A039B02F5E07253F822303E
:102EB4001B0C03F00303DBB2184605B05DF804FBFA
:102EC40082B00190019BD3F81035184602B07047C8
:102ED40088B0039002910192164A05AB92E8030070
:102EE40083E80300039B079319E0079B9B002033AF
:102EF4006B4453F80C3CD3F82025019B1A60079BC4
:102F04009B0020336B4453F80C3C019A1268C3F8BD
:102F14002025019B04330193079B01330793039AF4
:102F2400029B1344079A9A42DFD300BF00BF08B044
:102F3400704700BFBC3E010000B585B0019001ABF5
:102F44001846FFF7DDFE0390019B012202FA03F30A
:102F54001A46039BC3F8202500BF05B05DF804FBA7
:102F640084B00190019B5B09029300230393029BAD
:102F7400002B03D0029B012B04D007E04FF0FF335A
:102F8400039303E04FF6FF73039300BF019B03F029
:102F94001F030193039A019B22FA03F303F0010335
:102FA400002B14BF01230023DBB2184604B0704782
:102FB40084B001900091009B0393019BDB08029372
:102FC400019B03F0070301930122019B02FA03F31F
:102FD4000399029A0A4412781340184604B07047C1
:102FE40084B001900091009B0393019BDB08029342
:102FF400019B03F007030193039A029B13441B787C
:103004005AB20121019B01FA03F35BB2134359B293
:10301400039A029B1344CAB21A7000BF04B07047EB
:1030240082B001900C4A019B1344303393F9003071
:10303400002B09DB084A019B1344303393F9003019
:10304400072B01DC012300E0002303F00103DBB2C2
:10305400184602B0704700BF7003002082B0019090
:10306400064A019B1344303393F90030072BCCBF3D
:1030740001230023DBB2184602B07047700300201E
:1030840082B00190064A019B1344303393F9003017
:10309400DB43DBB2DB09DBB2184602B0704700BF8A
:1030A4007003002084B00390029101928DF80330E4
:1030B400029B59B20E4A039B134430330A461A70DA
:1030C4000B49029B019A41F823209DF8033083F0B9
:1030D4000103DBB2002B08D0029B083B039A51B2D8
:1030E400034A13440A4683F8602000BF04B07047C3
:1030F4007003002082B00190044A019B13443033D2
:10310400FF221A7000BF02B0704700BF7003002096
:1031140000B583B0019004490198FFF761FF00BF37
:1031240003B05DF804FB00BFD403002082B001901B
:10313400044A019B1344303393F90030184602B01B
:10314400704700BF7003002082B00190034A019BC6
:1031540052F82330184602B0704700BF70030020B5
:1031640084B00190074A019B1344603393F9003003
:103174008DF80F309DF80F3023F0C003184604B0CB
:10318400704700BF7003002084B00190074A019B80
:103194001344603393F900308DF80F309DF80F30ED
:1031A4009B09DBB2184604B0704700BF70030020CF
:1031B40000B589B00390029113468DF80730FF23C0
:1031C4008DF81F309DF80730002B01D0002300E05C
:1031D400082305939DF80730002B01D0082300E055
:1031E4000C230493059B069314E00F4A069B52F8A4
:1031F4002330B3F1FF3F0AD19DF80730029A0699B4
:103204000398FFF74FFF069B8DF81F3006E0069BDF
:1032140001330693069A049B9A42E6D39DF91F3024
:10322400184609B05DF804FB7003002082B0034621
:103234008DF807309DF80730094A4FF0FF3142F806
:1032440023109DF80730072B07D99DF80730083B5A
:10325400034A1344FF2283F8602000BF02B0704782
:103264007003002000B583B02D4B93F86A30002B17
:1032740003D008230193019B4EE000238DF8033013
:1032840011E09DF803301846FFF76AFE0346002B51
:1032940004D09DF803301846FFF72CFF9DF8033047
:1032A40001338DF803309DF803302F2BE9D9002327
:1032B4008DF8033009E09DF803301846FFF7B6FF98
:1032C4009DF8033001338DF803309DF803300B2B48
:1032D400F1D906220021134810F05CF91248FFF7D7
:1032E40019FC034606211846FFF71CFC0E48FFF79D
:1032F40011FC03461846FFF735FC4FF4BE70FFF788
:1033040054FC4FF00040FFF779FC054B012283F891
:103314006A2000230193019B184603B05DF804FB67
:1033240070030020D403002000600040044B93F895
:103334006A30002B14BF01230023DBB21846704708
:103344007003002000B587B00390029101920398A6
:10335400FFF706FE0346002B04D137494FF40C70E7
:103364000BF02EF8002305930398FFF789FE03461C
:10337400002B02D00823059358E0029B9B78C3F3EB
:103384004003DBB21A4601990398FFF711FF034685
:103394008DF813309DF91330B3F1FF3F44D0029BF5
:1033A4009B78C3F38003DBB283F00103DBB2002B11
:1033B40013D0029B9B7803F00103DBB2002B03D0F4
:1033C4000398FFF709FD05E0029B5B781946039813
:1033D400FFF7EDFC0398FFF79BFE029B9B7803F03D
:1033E4000203DBB2002B08D09DF91300029B1B786B
:1033F4001A460399FFF730FC18E09DF91330083B97
:103404000E4A134493F96010029B1B785BB29B0134
:103414005AB29DF91330083B0A4351B2074A134488
:103424000A4683F8602001E004230593059B1846AF
:1034340007B05DF804FB00BFCC3E01007003002020
:1034440000B589B001900B468DF803300198FFF761
:1034540087FD0346002B04D13A494FF418700AF053
:10346400AFFF0198FFF70CFE0346002B04D135494A
:1034740040F261200AF0A4FF0198FFF7EFFD034634
:10348400002B2AD00198FFF751FE0346083B18464B
:10349400FFF77AFE03468DF80F309DF80F30032BAB
:1034A4000BD10198FFF7E1FC0346002B01D0032365
:1034B40000E002238DF81F3008E09DF80F30012B47
:1034C40001D1022300E003238DF81F309DF81F3043
:1034D40019460198FFF79CFC30E00198FFF7A0FD26
:1034E4000346002B2AD00198FFF720FE03460693DB
:1034F400069B9BB240339BB29B00ADF81630069BF3
:103504001846FFF793FBBDF816301846FFF74DFB3E
:103514009DF80330002B11D00198FFF707FE0346F6
:103524001846FFF711FE0490049B002B06D00122DD
:10353400069B02FA03F31846FFF760FB00BF09B0CD
:103544005DF804FBCC3E010000B583B00190019806
:10355400FFF706FD0346002B04D1094940F2B220CF
:103564000AF02EFF0198FFF780FC0346002B14BFDE
:1035740001230023DBB2184603B05DF804FB00BF4F
:10358400CC3E010000B585B00190019A02210020D3
:10359400FFF79EFC002303930BE0039B9B00019A1F
:1035A40013441B68002B01D0012306E0039B013365
:1035B4000393039B012BF0D90023184605B05DF853
:1035C40004FB000000B587B00190002305935BE085
:1035D400344A059B1344603393F90030B3F1FF3F41
:1035E4004ED00598FFF7BCFD049001990498FFF7AD
:1035F400DFFC0346002B44D00598FFF7C5FD0346C6
:103604008DF80F300498FFF745FC03468DF80E3013
:103614009DF80E30022B01D1032300E002238DF824
:103624000D309DF80D3019460498FFF7F1FB04980E
:10363400FFF782FC0498FFF779FD03461846FFF76D
:1036440083FD0290029B002B1BD09DF80F30032BAF
:103654000FD09DF80E30022B03D19DF80F30012BB3
:1036640007D09DF80E30032B0BD19DF80F30022BA1
:1036740007D19DF80F20029B11460498984700E05B
:1036840000BF059B01330593059B032BA0D901982B
:10369400FFF778FF0346002B97D100BF00BF07B0A8
:1036A4005DF804FB7003002000B58BB00023089381
:1036B40001AB00221A605A604FF48073ADF81A30DF
:1036C400012309930023079321E0BDF81A3018461B
:1036D400FFF756FA0346002B0ED00998FFF79AFA23
:1036E4000346002B08D0BDF81A301846FFF75DFAE0
:1036F400089A099B13430893099B5B000993BDF83F
:103704001A300433ADF81A30079B01330793079B33
:10371400072BDAD94FF4BE70FFF732FA0346002BB9
:103724000DD04FF4BE70FFF740FA089B43F00043FE
:10373400089301AB1A4602210020FFF7C9FB089B3E
:10374400DBB2002B29D0012309930023079321E046
:10375400099A089B1340002B16D00798FFF7AEFA7E
:1037640005900798FFF7BAFA03468DF813300798C7
:10377400FFF7EAFC0390039B002B05D09DF8132070
:10378400039B114605989847099B5B000993079B87
:1037940001330793079B072BDAD9089B002B03DA25
:1037A40001AB1846FFF70EFF00BF0BB05DF804FB3A
:1037B40082B003468DF807309DF90730002B0CDBEF
:1037C4009DF8073003F01F0205499DF907305B0996
:1037D400012000FA02F241F8232000BF02B0704732
:1037E40000E100E082B0034600918DF807309DF9B6
:1037F4000730002B0ADB009BDAB20C499DF9073035
:103804005201D2B20B4483F800230BE0009BDAB2DE
:1038140007499DF8073003F00F03043B5201D2B26D
:103824000B441A7600BF02B0704700BF00E100E00D
:1038340000ED00E082B00190019B1B0B5BB21846C7
:1038440002B0704700B583B003460A468DF80730CE
:1038540013468DF806309DF80630072B03D9084926
:103864006B200AF0ADFD9DF806209DF90730114646
:103874001846FFF7B7FF00BF03B05DF804FB00BFB5
:10388400183F010000B583B003468DF807309DF959
:1038940007301846FFF78CFF00BF03B05DF804FB48
:1038A40082B003468DF807300F4A9DF90730002B8C
:1038B40000DA1F335B115BB252F823209DF9073005
:1038C400594203F01F0301F01F0158BF4B425BB282
:1038D40022FA03F303F00103002B14BF0123002396
:1038E400DBB2184602B0704700E100E084B0034642
:1038F400ADF80630BDF8063003F1804300221A60AB
:10390400BDF8063003F180431B680393039B00BF9B
:1039140004B0704782B00346ADF80630BDF80630F7
:1039240003F180431B68002B14BF01230023DBB287
:10393400184602B0704700B585B00346ADF80630AE
:10394400BDF806301846FFF7E5FF03468DF80F3043
:103954009DF80F30002B04D0BDF806301846FFF751
:10396400C5FF9DF80F30184605B05DF804FB82B022
:1039740001904FF08042019BC2F8043300BF02B0B3
:1039840070474FF08043D3F804331846704782B031
:1039940001904FF08042019BC2F8083300BF02B08F
:1039A400704782B003468DF807309DF80730002B2E
:1039B40001D0012300E000234FF08042C2F87835A3
:1039C40000BF02B0704782B003468DF807309DF8FF
:1039D4000730002B01D0012300E000234FF0804288
:1039E400C2F8803500BF02B0704700B583B006232B
:1039F4008DF807304FF08040FFF71CFF0346184650
:103A0400FFF74EFF034683F00103DBB2002B13D014
:103A14004FF08040FFF70EFF03461A469DF807302B
:103A240019461046FFF70EFF4FF08040FFF702FFE4
:103A340003461846FFF726FF00BF03B05DF804FBFA
:103A440000B583B00190019B002B03D11149702074
:103A54000AF0B6FC104B1B78002B01D0852315E02F
:103A6400019B1B78C3F34003DBB21846FFF7ABFF9F
:103A7400019B1B78C3F30003DBB21846FFF791FFE9
:103A8400FFF7B3FF044B01221A700023184603B05A
:103A94005DF804FB783F0100DC03002000B583B02F
:103AA4000190019B002B03D10849ED200AF088FC0A
:103AB40000F01EF8019B1B68002B03D0019B1B68C0
:103AC400034A136000BF03B05DF804FB783F0100B4
:103AD400E803002008B54FF46070FFF748FF00BF0B
:103AE40008BD08B54FF46070FFF751FF00BF08BD73
:103AF400024B00221A6000BF704700BFE803002099
:103B040000B583B0FFF73DFF0190019B03F0040370
:103B1400002B12D04FF48470FFF70DFF0346002BE7
:103B24000BD0464B1B68002B04D145494FF48B70D6
:103B34000AF046FC414B1B689847019B03F02003A5
:103B4400002B13D04FF48A70FFF7F5FE0346002BC9
:103B54000CD03C4B1B68002B04D1394940F21F1098
:103B64000AF02EFC374B1B6800209847019B03F09A
:103B74004003002B13D04FF48C70FFF7DCFE034698
:103B8400002B0CD02F4B1B68002B04D12C494FF475
:103B940093700AF015FC2B4B1B6801209847019B7E
:103BA40003F08003002B13D04FF48E70FFF7C3FE95
:103BB4000346002B0CD0244B1B68002B04D1204956
:103BC40040F22F100AF0FCFB1F4B1B6800209847A3
:103BD400019B03F48073002B13D04FF49070FFF714
:103BE400AAFE0346002B0CD0174B1B68002B04D1F4
:103BF40013494FF49B700AF0E3FB134B1B6801203D
:103C04009847019B03F40073002B13D04FF4927078
:103C1400FFF791FE0346002B0CD00B4B1B68002BC7
:103C240004D1074940F23D100AF0CAFB064B1B6859
:103C34000220984700BF03B05DF804FBE0030020B6
:103C4400783F0100E4030020E803002008B5FFF7F3
:103C540057FFFEF7E9FE00BF08BD000008B5064B9C
:103C64001B68002B03D1054951200AF0A9FB024B24
:103C74001B68984708BD00BFEC030020C83F010043
:103C840082B00190019B044A934201D1034B00E0AE
:103C94000023184602B0704700200040EC030020C7
:103CA40000B587B001900091019B002B03D1184906
:103CB40077200AF085FB0198FFF7E2FF0590059B4A
:103CC400002B1ED000238DF81330002009F0FCFDDA
:103CD400059B1B79002B03D001238DF8133005E0DD
:103CE400059B009A1A60059B01221A71002009F0B5
:103CF400FFFD9DF81330002B03D011230393039B86
:103D040002E000230393039B184607B05DF804FB0D
:103D1400C83F010000B585B00190019B002B03D181
:103D24000A499B200AF04CFB0198FFF7A9FF039076
:103D3400039B002B05D0039B00221A60039B0022E7
:103D44001A7100BF05B05DF804FB00BFC83F010055
:103D540082B003468DF807309DF90730002B0CDB49
:103D64009DF8073003F01F0205499DF907305B09F0
:103D7400012000FA02F241F8232000BF02B070478C
:103D840000E100E082B003468DF807309DF907306A
:103D9400002B13DB9DF8073003F01F0209499DF93E
:103DA40007305B09012000FA02F2203341F8232096
:103DB400BFF34F8F00BFBFF36F8F00BF00BF02B0D0
:103DC400704700BF00E100E082B0034600918DF827
:103DD40007309DF90730002B0ADB009BDAB20C494F
:103DE4009DF907305201D2B20B4483F800230BE053
:103DF400009BDAB207499DF8073003F00F03043B38
:103E04005201D2B20B441A7600BF02B0704700BF11
:103E140000E100E000ED00E082B00190019B1B0B8B
:103E24005BB2184602B0704700B583B003460A4639
:103E34008DF8073013468DF806309DF80630072BB1
:103E440003D908496B200AF0BBFA9DF806209DF9B6
:103E5400073011461846FFF7B7FF00BF03B05DF8FF
:103E640004FB00BF1440010000B583B003468DF885
:103E740007309DF907301846FFF76AFF00BF03B00B
:103E84005DF804FB00B583B003468DF807309DF957
:103E940007301846FFF776FF00BF03B05DF804FB58
:103EA40084B001900B46ADF80230BDF80230019A9F
:103EB400134400221A60BDF80230019A13441B68AF
:103EC4000393039B00BF04B0704782B001900B467C
:103ED400ADF80230BDF80230019A13441B68002B80
:103EE40014BF01230023DBB2184602B0704782B02E
:103EF40001900091019B009AC3F8042300BF02B013
:103F0400704782B001900091019BD3F80423009B79
:103F14001340002B14BF01230023DBB2184602B068
:103F2400704782B001900091019B009AC3F8082366
:103F340000BF02B0704784B00190019BD3F8803475
:103F44000393019B039AC3F88024039B184604B08F
:103F5400704782B00190019B0422C3F8002500BF82
:103F640002B0704782B00190019B0022C3F8002583
:103F740000BF02B0704784B0039002910192039B8A
:103F8400019AC3F81425039B029AC3F80C2500BFB9
:103F940004B0704700B583B001904FF0FF324FF08A
:103FA400FF310198FFF7E7FF00BF03B05DF804FBA2
:103FB40082B00190019BD3F80C35184602B07047CB
:103FC40082B00190019BD3F81435184602B07047B3
:103FD40082B00190019BD3F80835184602B07047AF
:103FE40082B00190019BD3F81035184602B0704797
:103FF40084B0039002910192039B029AC3F80825AE
:10400400039B019AC3F8102500BF04B0704700B5A4
:1040140083B001904FF0FF324FF0FF310198FFF76A
:10402400E7FF00BF03B05DF804FB82B00190019B81
:10403400D3F81835DBB2184602B0704782B001904D
:104044000B468DF803309DF80320019BC3F81C2513
:1040540000BF02B0704782B001900B468DF8033068
:104064009DF80330019A134401221A6000BF02B084
:10407400704782B001900B468DF8033013468DF8DB
:1040840002309DF803209DF802301343DBB21A4638
:10409400019BC3F86C2500BF02B0704782B0019049
:1040A4000091019B009AC3F8242500BF02B0704719
:1040B40000B583B00190019B1B68184600F0A4F87A
:1040C4000346002B04D10B494FF4F6700AF078F93B
:1040D400019B1B681F2B02D84FF0A04306E0019BF5
:1040E4001B6803F01F02019B1A60034B184603B0C0
:1040F4005DF804FB444001000003005000B585B0A6
:104104000190084611461A4603468DF803300B46C3
:104114008DF8023013468DF8013001AB1846FFF7D5
:10412400C7FF03909DF803209DF802305B001A43FB
:104134009DF801309B001A439DF818301B0242EA97
:1041440003019DF81C301B04019A1943039B02F5DB
:10415400E07243F8221000BF05B05DF804FB00B51F
:1041640085B00390002301930023009300230122D0
:1041740001210398FFF7C2FF00BF05B05DF804FBFF
:1041840000B585B003900B468DF80B309DF80B30CD
:104194000022019200220092002200210398FFF7DE
:1041A400ADFF00BF05B05DF804FB00B585B003901A
:1041B400002301930023009300230122002103988C
:1041C400FFF79CFF00BF05B05DF804FB00B585B0A8
:1041D400019001AB1846FFF76BFF0390019B01228E
:1041E40002FA03F31946039800F004F800BF05B07F
:1041F4005DF804FB82B001900091019B009AC3F822
:10420400082500BF02B0704784B00190019B5B0990
:10421400029300230393029B002B03D0029B012BE8
:1042240004D007E04FF0FF33039303E04FF6FF732E
:10423400039300BF019B03F01F030193039A019BA7
:1042440022FA03F303F00103002B14BF012300231C
:10425400DBB2184604B0704700B583B001900091FA
:10426400009B1B68B3F1FF3F09D0009B1B681846F5
:10427400FFF7ACFF009B1B681846FFF770FF009B1D
:104284005B68B3F1FF3F05D0009B5B6800211846D3
:10429400FFF776FF019B1A68009B9B69194610463D
:1042A400FFF7FCFE019B1868009B597D009B1B7D5A
:1042B4001A46FFF7DEFE019B1868009B1968009BF5
:1042C4005B681A46FFF757FE009B1B7D012B22D12A
:1042D400009B9B68B3F1FF3F05D0009B9B680021C6
:1042E4001846FFF74DFF009BDB68B3F1FF3F09D091
:1042F400009BDB681846FFF769FF009BDB681846E4
:10430400FFF72DFF019B1868009BD968009B9B68F1
:104314001A46FFF76DFE00BF03B05DF804FB000012
:1043240000B583B001900B468DF80330019B1B68E8
:104334004FF48E711846FFF7B3FD019B1B684FF4D1
:10434400A2711846FFF7ACFD019B1B680E49184685
:10435400FFF7CDFD019B1B681846FFF75DFD034683
:104364001A469DF8033019461046FFF75DFD019B80
:104374001B681846FFF750FD03461846FFF774FD07
:1043840000BF03B05DF804FB8000020000B583B0F9
:104394000190019B1B6808491846FFF7C2FD019B69
:1043A4001B681846FFF738FD03461846FFF76AFDF9
:1043B40000BF03B05DF804FB8402020000B587B0BF
:1043C4000190019B1B681846FFF7F2FD0590019BC5
:1043D4001B681846FFF7F4FD0490019B1B68184600
:1043E400FFF7F6FD0390019B1B681846FFF7F8FDE5
:1043F4000290019B1B681846FFF7CCFD019B1B68CC
:104404001846FFF704FE059BB3F1FF3F02D0059861
:10441400FFF7CBFE049BB3F1FF3F02D00498FFF7F4
:10442400C4FE029BB3F1FF3F02D00298FFF7BDFE2A
:10443400039BB3F1FF3F02D00398FFF7B6FE00BF22
:1044440007B05DF804FB000000B587B0039002914B
:104454000192029B002B03D12D49AA2009F0B0FF41
:10446400039B1B791A462C2302FB03F3294A1344AA
:10447400049300230593049B93F82A30002B03D064
:1044840008230593059B3EE0039B1A68039B1B7955
:104494001946214B53F8213019461046FFF700FC0A
:1044A4000346002B03D011230593059B2BE00299AF
:1044B4000398FFF7D1FE049B019A5A60029B1A6984
:1044C400049B1A60049B5B68002B05D0029B1B7F36
:1044D40019460398FFF724FF039B1B681846FFF750
:1044E40038FD049B00229A61049B0022DA61049B3C
:1044F400002283F82920049B00225A61049B012294
:1045040083F82A20059B184607B05DF804FB00BF1A
:104514007C400100F4030020C840010000B585B0D0
:104524000190019B1B791A462C2302FB03F3114AC9
:1045340013440393019B1B681846FFF713FD039B69
:104544005B68002B02D00198FFF720FF0198FFF76A
:1045540035FF019B1B681846FFF7DCFB039B002219
:1045640083F82A20039B00225A6000BF05B05DF83F
:1045740004FB00BFF403002000B585B00190009156
:104584004FF48E710198FFF78BFC009B9A68009B97
:104594001B6A13441B788DF80F30009B1B6A5A1C4E
:1045A400009B1A629DF80F3019460198FFF746FDEB
:1045B40000BF05B05DF804FB00B585B00190009123
:1045C400009B5B69039316E0009B93F82830DBB2F1
:1045D400002B01D0002314E04FF48E710198FFF7F3
:1045E40074FC034683F00103DBB2002BECD1009989
:1045F4000198FFF7C1FF009B1B6A039A9A42EBD80C
:104604000123184605B05DF804FB000000B587B02F
:10461400039002910192039B1B791A462C2302FBFF
:1046240003F33C4A13440493049B93F82A30012B6C
:1046340004D039494FF48C7009F0C2FE029B002B60
:1046440004D1354940F2191009F0BAFE019B002B40
:1046540004D131494FF48D7009F0B2FE039800F093
:104664005DF80346002B03D011230593059B4CE012
:10467400049B019A5A61049B029A9A60049B00224B
:104684001A62049B002283F8282000230593039BCD
:104694001B684FF48E711846FFF702FC039B1B68DE
:1046A40008211846FFF7D7FC039B1B68049918469A
:1046B400FFF762FF049B5B68002B25D1039B1B68FB
:1046C40004991846FFF778FF034683F00103DBB231
:1046D400002B02D00F23059313E000BF039B1B683C
:1046E4004FF48E711846FFF7F0FB034683F0010385
:1046F400DBB2002BF2D1039B1B680C211846FFF799
:10470400AAFC049B00225A61059B184607B05DF879
:1047140004FB00BFF40300207C40010082B0019040
:10472400019B1B791946074A2C2301FB03F313440D
:1047340014331B68002B14BF01230023DBB218467B
:1047440002B07047F403002010B582B001900091CC
:10475400009B9B69002B08D14FF484710198FFF7EB
:104764009FFB0198FFF761FC13E04FF484710198FB
:10477400FFF796FB009BDA68009B5B6AD4180198EC
:10478400FFF753FC03462370009B5B6A5A1C009B93
:104794005A6202B010BD00B589B003900291019233
:1047A40001238DF81030029B0693019B0593039B14
:1047B4005B68039A116804AA1046984700BF09B0C1
:1047C4005DF804FB00B587B00190009100238DF8DB
:1047D4000830009B0493019B9B680393019B002278
:1047E4005A61019B5B68019A116802AA10469847B6
:1047F40000BF07B05DF804FB00B58BB001900091D9
:104804004FF400710198FFF77CFB0346002B39D06D
:104814004FF492710198FFF758FB0346002B31D0F7
:104824004FF492710198FFF73BFB4FF4017101982B
:10483400FFF777FB009B93F8293083F00103DBB289
:10484400002B03D004210198FFF705FC02238DF807
:104854000C300198FFF76FFB03460693009B9B699E
:104864000593009BDB680493009B00229A61009BE4
:104874000022DA61009B5B68009A116803AA104663
:10488400984752E004210198FFF73BFB0346002BB5
:104894004BD04FF484710198FFF717FB0346002BAC
:1048A40043D000990198FFF74FFF009B9A69009B42
:1048B4005B6A9A4239D1009BDB69002B19D0009BBB
:1048C400DB680993009B5B6A0893009BDA69009B91
:1048D4009A61009B1A69009BDA60009B0022DA61EE
:1048E400009B00225A62099A08990098FFF753FF27
:1048F4001BE0009B93F8293083F00103DBB2002B0B
:1049040003D004210198FFF7A6FB4FF4017101982D
:10491400FFF707FB009B00229A61009B596A009BEA
:10492400DB681A460098FFF736FF4FF48E71019842
:10493400FFF7CBFA0346002B24D0009B5B69079357
:10494400009B1B6A079A9A420DD9009B93F8283062
:10495400DBB283F00103DBB2002B04D00099019891
:10496400FFF70AFE0EE04FF48E710198FFF798FAF4
:10497400009B5B69002B05D0009B5B69194600987E
:10498400FFF720FF4FF4A2710198FFF79EFA034648
:10499400002B1CD04FF4A2710198FFF781FA009B01
:1049A40093F82930002B03D000210198FFF753FB23
:1049B400009B9B69002B0AD0009B00229A61009BFC
:1049C400596A009BDB681A460098FFF7E4FE00BFB3
:1049D4000BB05DF804FB000008B503490348FFF77A
:1049E4000BFF00BF08BD00BFF403002000200040FF
:1049F40082B003468DF807309DF90730002B0CDB9D
:104A04009DF8073003F01F0205499DF907305B0943
:104A1400012000FA02F241F8232000BF02B07047DF
:104A240000E100E082B003468DF807309DF90730BD
:104A3400002B13DB9DF8073003F01F0209499DF991
:104A440007305B09012000FA02F2203341F82320E9
:104A5400BFF34F8F00BFBFF36F8F00BF00BF02B023
:104A6400704700BF00E100E082B0034600918DF87A
:104A740007309DF90730002B0ADB009BDAB20C49A2
:104A84009DF907305201D2B20B4483F800230BE0A6
:104A9400009BDAB207499DF8073003F00F03043B8B
:104AA4005201D2B20B441A7600BF02B0704700BF65
:104AB40000E100E000ED00E082B00190019B03F012
:104AC4006043B3F1005F0CBF01230023DBB218463F
:104AD40002B0704782B00190019B1B0B5BB2184679
:104AE40002B0704700B583B003460A468DF807301C
:104AF40013468DF806309DF80630072B03D9084974
:104B04006B2009F05DFC9DF806209DF907301146E5
:104B14001846FFF7A9FF00BF03B05DF804FB00BF10
:104B2400CC40010000B583B003468DF807309DF9F1
:104B340007301846FFF75CFF00BF03B05DF804FBC5
:104B440000B583B003468DF807309DF90730184649
:104B5400FFF768FF00BF03B05DF804FB84B0019069
:104B64000B46ADF80230BDF80230019A134400221E
:104B74001A60BDF80230019A13441B680393039B27
:104B840000BF04B0704782B001900B46ADF802300C
:104B9400BDF80230019A13441B68002B14BF012393
:104BA4000023DBB2184602B0704782B00190009136
:104BB400019BD3F80022009BDB431A40019BC3F8FE
:104BC400002200BF02B0704782B001900091019BA7
:104BD400009AC3F8042300BF02B0704782B001906A
:104BE4000091019B009AC3F8082300BF02B07047EC
:104BF40084B00190019BD3F880340393019B039A02
:104C0400C3F88024039B184604B0704782B0019017
:104C1400019B0822C3F8002500BF02B0704782B090
:104C24000190019B0022C3F8002500BF02B0704729
:104C340084B0039002910192039B029AC3F80C255D
:104C4400039B019AC3F8142500BF04B0704700B554
:104C540083B001904FF0FF324FF0FF310198FFF71E
:104C6400E7FF00BF03B05DF804FB82B00190019B35
:104C7400D3F80C35184602B0704782B00190019BFE
:104C8400D3F81435184602B0704782B00190019BE6
:104C9400D3F80835184602B0704782B00190019BE2
:104CA400D3F81035184602B0704784B003900291CF
:104CB4000192039B029AC3F80825039B019AC3F847
:104CC400102500BF04B0704700B583B001904FF0C9
:104CD400FF324FF0FF310198FFF7E7FF00BF03B049
:104CE4005DF804FB82B001900B468DF803309DF80B
:104CF4000330019A134401221A6000BF02B07047C6
:104D040082B001900B468DF8033013468DF80230C3
:104D14009DF803209DF802301343DBB21A46019B31
:104D2400C3F86C2500BF02B0704782B001900091B7
:104D3400019B009AC3F8242500BF02B0704784B0D9
:104D4400039002910192029A039BC3F84425039BAA
:104D5400019AC3F8482500BF04B0704782B001909F
:104D6400019BD3F84C35184602B0704782B00190CD
:104D7400019BD3F83C35184602B0704700B583B0A8
:104D84000190019B1B68184600F0A4F80346002B11
:104D940004D10B494FF4F67009F012FB019B1B6818
:104DA4001F2B02D84FF0A04306E0019B1B6803F0C1
:104DB4001F02019B1A60034B184603B05DF804FB05
:104DC400FC4001000003005000B585B00190084686
:104DD40011461A4603468DF803300B468DF802300F
:104DE40013468DF8013001AB1846FFF7C7FF039057
:104DF4009DF803209DF802305B001A439DF80130B2
:104E04009B001A439DF818301B0242EA03019DF8E7
:104E14001C301B04019A1943039B02F5E07243F80A
:104E2400221000BF05B05DF804FB00B585B0039007
:104E340000230193002300930023012201210398FE
:104E4400FFF7C2FF00BF05B05DF804FB00B585B0F5
:104E540003900B468DF80B309DF80B300022019225
:104E640000220092002200210398FFF7ADFF00BF4B
:104E740005B05DF804FB00B585B0039000230193F1
:104E8400002300930023012200210398FFF79CFFD5
:104E940000BF05B05DF804FB00B585B0019001AB1F
:104EA4001846FFF76BFF0390019B012202FA03F3FC
:104EB4001946039800F004F800BF05B05DF804FB40
:104EC40082B001900091019B009AC3F8082500BFAD
:104ED40002B0704784B00190019B5B0902930023E8
:104EE4000393029B002B03D0029B012B04D007E009
:104EF4004FF0FF33039303E04FF6FF73039300BFB8
:104F0400019B03F01F030193039A019B22FA03F30D
:104F140003F00103002B14BF01230023DBB2184666
:104F240004B0704700B583B001900091009B1B68EA
:104F3400B3F1FF3F09D0009B1B681846FFF7ACFF95
:104F4400009B1B681846FFF770FF009B5B68B3F17A
:104F5400FF3F05D0009B5B6800211846FFF776FFF2
:104F6400019B1A68009B9B6919461046FFF7DDFEFA
:104F7400019B1868009B597D009B1B7D1A46FFF717
:104F8400BFFE019B1868009B1968009B5B681A466A
:104F9400FFF74EFE009B1B7D012B22D1009B9B68DB
:104FA400B3F1FF3F05D0009B9B6800211846FFF733
:104FB4004DFF009BDB68B3F1FF3F09D0009BDB682A
:104FC4001846FFF769FF009BDB681846FFF72DFFC3
:104FD400019B1868009BD968009B9B681A46FFF7E1
:104FE40064FE00BF03B05DF804FB000000B583B0AD
:104FF40001900B468DF80330019B1B684FF48871B8
:105004001846FFF7ABFD019B1B684FF490711846DF
:10501400FFF7A4FD019B1B684FF492711846FFF73C
:105024009DFD019B1B684FF4A2711846FFF796FD86
:10503400019B1B684FF4AC711846FFF78FFD019B71
:105044001B680F491846FFF7BFFD019B1B681846F4
:10505400FFF740FD03461A469DF8033019461046F3
:10506400FFF740FD019B1B681846FFF733FD03461D
:105074001846FFF757FD00BF03B05DF804FB00BFFF
:105084001003420000B583B00190019B1B680849DE
:105094001846FFF7A3FD019B1B681846FFF71AFD8E
:1050A40003461846FFF74CFD00BF03B05DF804FB50
:1050B4001003420000B587B00190019B1B6818469D
:1050C400FFF7D3FD0590019B1B681846FFF7D5FD3C
:1050D4000490019B1B681846FFF7D7FD0390019BC2
:1050E4001B681846FFF7D9FD0290019B1B68184600
:1050F400FFF7ADFD019B1B681846FFF7E5FD059B17
:10510400B3F1FF3F02D00598FFF7B5FE049BB3F15E
:10511400FF3F02D00498FFF7AEFE029BB3F1FF3FBE
:1051240002D00298FFF7A7FE039BB3F1FF3F02D022
:105134000398FFF7A0FE00BF07B05DF804FB000072
:1051440000B587B0039002910192029B002B03D11A
:105154002B49CF2009F034F9039B1B791A461346D7
:10516400DB0013449B00274A134404930023059354
:10517400049B93F82030002B03D008230593059B50
:105184003AE0039B1A68039B1B7919461E4B53F89C
:10519400213019461046FEF783FD0346002B03D049
:1051A40011230593059B27E002990398FFF7BAFEA4
:1051B400049B019A5A60029B1A69049B1A60049B1F
:1051C4005B68002B05D0029B1B7F19460398FFF7F1
:1051D4000DFF039B1B681846FFF718FD049B002274
:1051E4009A61049B0022DA61049B00225A61049BA9
:1051F400012283F82020059B184607B05DF804FBC4
:1052040034410100200400208041010000B585B034
:105214000190019B1B791A461346DB0013449B0043
:105224002A4A13440393019B1B680293039B5B6804
:10523400002B02D00198FFF725FF20210298FFF7E9
:10524400B4FC039B9B69002B08D04FF4A271029815
:10525400FFF784FC04210298FFF744FD4FF4AC717E
:105264000298FFF77BFC0C210298FFF73BFD00BF7F
:105274004FF4AC710298FFF786FC034683F00103F8
:10528400DBB2002BF4D1039B9B69002B0AD04FF4B3
:10529400A2710298FFF777FC034683F00103DBB2A7
:1052A400002BE5D10298FFF7BAFC0198FFF702FF43
:1052B4000298FEF72FFD039B002283F82020039B16
:1052C40000225A6000BF05B05DF804FB20040020F2
:1052D40000B589B0039002910192039B1B791A4691
:1052E4001346DB0013449B00574A13440593059B64
:1052F40093F82030012B04D0544940F2531009F0A4
:105304005FF8029B002B04D150494FF4AA7009F0B6
:1053140057F8019B002B04D14C4940F2551009F079
:105324004FF8039B1B79002B03D1019BB3F5803FFE
:1053340004D346494FF4AB7009F042F80298FFF7E2
:10534400BBFB034683F00103DBB2002B03D0102325
:105354000793079B73E0039800F07AF80346002B49
:1053640003D011230793079B69E0059B019A5A61B7
:10537400059B029A9A6000230793039B1B684FF4D2
:1053840090711846FFF7EAFB039B1B684FF4AC715E
:105394001846FFF7E3FB039B1868059B9968059B78
:1053A4005B691A46FFF7CBFC039B1B680821184670
:1053B400FFF798FC059B5B68002B3FD1039B1B68A0
:1053C4004FF490711846FFF7DEFB03468DF81B304F
:1053D400039B1B684FF4AC711846FFF7D4FB0346DC
:1053E4008DF81A309DF81B3083F00103DBB2002BDB
:1053F40006D09DF81A3083F00103DBB2002BDDD117
:105404009DF81A30002B02D00F23079313E0039B5F
:105414001B680C211846FFF765FC00BF039B1B6843
:105424004FF4AC711846FFF7AEFB034683F001035B
:10543400DBB2002BF2D1059B00225A61079B184670
:1054440009B05DF804FB00BF2004002034410100D2
:1054540082B00190019B1B791946084A0B46DB0078
:105464000B449B00134414331B68002B14BF01230B
:105474000023DBB2184602B0704700BF20040020AE
:1054840000B589B003900291019201238DF8103088
:10549400029B0693019B0593039B5B68039A116827
:1054A40004AA1046984700BF09B05DF804FB00B594
:1054B40087B00190009100238DF80830009B04937D
:1054C400019B9B680393019B00225A61019B5B68CB
:1054D400019A116802AA1046984700BF07B05DF808
:1054E40004FB00B589B0019000914FF492710198CA
:1054F400FFF749FB0346002B22D04FF49271019829
:10550400FFF72CFB02238DF808300198FFF770FB9E
:10551400034605930198FFF729FC03460493009B77
:10552400DB680393009B00229A61009B0022DA61EE
:10553400009B5B68009A116802AA104698473BE0FA
:105544004FF488710198FFF71EFB0346002B33D0FC
:105554004FF488710198FFF701FB0198FFF706FCEF
:105564000790009B9B69079A9A4225D1009BDB69AF
:10557400002B17D0009BDB68069320210198FFF7CE
:1055840014FB009BDA69009B9A61009B1A69009BDB
:10559400DA60009B0022DA61069A07990098FFF707
:1055A4006FFF09E0009B00229A61009BDB681A46AA
:1055B40007990098FFF764FF4FF4A2710198FFF771
:1055C400E2FA0346002B18D04FF4A2710198FFF7BA
:1055D400C5FA009B9B69002B0FD0009B00229A61A7
:1055E400009B0022DA610198FFF7C0FB0146009B93
:1055F400DB681A460098FFF743FF4FF49071019857
:10560400FFF7C1FA0346002B14D04FF490710198B0
:10561400FFF7A4FA0C210198FFF764FB009B5B6978
:10562400002B07D00198FFF799FB03461946009811
:10563400FFF73DFF4FF4AC710198FFF7A4FA03465E
:10564400002B10D04FF4AC710198FFF787FA009B40
:105654005B69002B07D00198FFF780FB03461946CE
:105664000098FFF724FF00BF09B05DF804FB0000B9
:1056740008B503490348FFF734FF00BF08BD00BF66
:10568400200400200020004082B003468DF807303B
:105694009DF90730002B0CDB9DF8073003F01F0247
:1056A40005499DF907305B09012000FA02F241F82F
:1056B400232000BF02B0704700E100E082B003463F
:1056C4008DF807309DF90730002B13DB9DF8073068
:1056D40003F01F0209499DF907305B09012000FA14
:1056E40002F2203341F82320BFF34F8F00BFBFF3F2
:1056F4006F8F00BF00BF02B0704700BF00E100E041
:1057040082B003468DF807309DF90730002B0DDB7E
:105714009DF8073003F01F0206499DF907305B0925
:10572400012000FA02F2403341F8232000BF02B006
:10573400704700BF00E100E082B003468DF80730F7
:105744009DF90730002B0DDB9DF8073003F01F0295
:1057540006499DF907305B09012000FA02F2603323
:1057640041F8232000BF02B0704700BF00E100E011
:1057740082B0034600918DF807309DF90730002B65
:105784000ADB009BDAB20C499DF907305201D2B210
:105794000B4483F800230BE0009BDAB207499DF821
:1057A400073003F00F03043B5201D2B20B441A76C4
:1057B40000BF02B0704700BF00E100E000ED00E070
:1057C40082B00190019B03F06043B3F1005F0CBF12
:1057D40001230023DBB2184602B0704782B0019067
:1057E400019B9A00024B1B681344184602B0704791
:1057F400C442010000B583B003460A468DF8073061
:1058040013468DF806309DF80630072B03D9084956
:105814006B2008F0D5FD9DF806209DF90730114650
:105824001846FFF7A5FF00BF03B05DF804FB00BFF7
:105834008441010000B583B003468DF807309DF91B
:1058440007301846FFF720FF00BF03B05DF804FBE4
:1058540082B003468DF807300F4A9DF90730002BBC
:1058640000DA1F335B115BB252F823209DF9073035
:10587400594203F01F0301F01F0158BF4B425BB2B2
:1058840022FA03F303F00103002B14BF01230023C6
:10589400DBB2184602B0704700E100E000B583B007
:1058A40003468DF807309DF907301846FFF706FFC9
:1058B40000BF03B05DF804FB00B583B003468DF868
:1058C40007309DF907301846FFF71AFF00BF03B0F1
:1058D4005DF804FB00B583B003468DF807309DF9ED
:1058E40007301846FFF728FF00BF03B05DF804FB3C
:1058F40082B00190019B03F1804303F51C331846E9
:1059040002B0704782B00190019B03F1804303F51C
:105914001C33184602B0704700B583B003468DF8B7
:1059240007309DF807301846FFF7E2FF03460122CF
:105934001A60BFF36F8F00BFBFF34F8F00BF00BF6C
:1059440003B05DF804FB00B583B00346ADF8063040
:10595400BDF806301846FFF7CBFF034600221A6055
:10596400BFF36F8F00BFBFF34F8F00BF00BF03B003
:105974005DF804FB00B583B00346ADF80630BDF80E
:1059840006301846FFF7BEFF03461B68002B14BF02
:1059940001230023DBB2184603B05DF804FB00B515
:1059A40085B00346ADF80630BDF806301846FFF75B
:1059B400E1FF03468DF80F309DF80F30002B04D023
:1059C400BDF806301846FFF7BEFF9DF80F301846A5
:1059D40005B05DF804FB000082B00190034A019B0E
:1059E400C2F8043300BF02B0704700BF0070024029
:1059F400024BD3F804331846704700BF00700240CE
:105A040082B00190034A019BC2F8083300BF02B080
:105A1400704700BF00700240054B0122C3F8002507
:105A2400BFF36F8F00BFBFF34F8F00BF00BF70473E
:105A340000700240054B0022C3F80025BFF36F8FAE
:105A440000BFBFF34F8F00BF00BF7047007002401C
:105A5400024BD3F800341846704700BF0070024070
:105A640082B00190064A019BC2F80034BFF36F8FE5
:105A740000BFBFF34F8F00BF00BF02B0704700BF2D
:105A84000070024000B583B0FFF7E2FF0190019877
:105A9400FFF7E6FFBFF36F8F00BFBFF34F8F00BF69
:105AA400019B184603B05DF804FB000000B585B007
:105AB40003468DF807309DF8073003F00F038DF887
:105AC4000F309DF90730002B10DA9DF80F30072BAB
:105AD40004D911494FF4816008F072FC0F4A9DF813
